:100000000C942A000C9434000C9434000C943400AA
:100010000C9434000C9434000C9434000C94340090
:100020000C9434000C9434000C9434000C94340080
:100030000C9434000C9434000C9434000C94340070
:100040000C9434000C9434000C9434000C94340060
:100050000C94340011241FBECFE5D8E0DEBFCDBF25
:100060000E948E000C94B1000C94000084E886BFBE
:10007000089580E280B911B884E886BF86B78064AD
:1000800086BF089584EA86BF06B607FC08C081B122
:10009000887F8830C9F781B1887F8031A9F70895BA
:1000A00084E986BF089590E0880F991F83B984E89A
:1000B00086BF06B607FC04C081B1887F8831C9F7C6
:1000C0000895880F816083B984E886BF86B780640D
:1000D00086BF06B607FC04C081B1887F8034C9F7AB
:1000E000089583B984E886BF06B607FC08C081B1CD
:1000F000887F8832C9F781B1887F883BA9F7089546
:1001000006B607FC04C081B1887F8035C9F784E852
:1001100086BF86B7806486BF83B108950F931F930F
:10012000CF93DF930E94390008EC10E00E94420058
:1001300082E00E945300C0E0D0E081E60E9471009E
:1001400088EB9BE0F8013197F1F70197D9F782E648
:100150000E9471002196CA30D10579F70E945000A3
:06016000E5CFF894FFCF8B
:00000001FF
