:100000000C942A000C9434000C9434000C943400AA
:100010000C9434000C9434000C9434000C94340090
:100020000C9434000C9434000C9434000C94340080
:100030000C9434000C9434000C9434000C94340070
:100040000C9434000C9434000C9434000C94340060
:100050000C94340011241FBECFE5D8E0DEBFCDBF25
:100060000E9466000C947D000C94000084E886BF1A
:10007000089580E280B911B884E886BF86B78064AD
:1000800086BF0895880F82B9089583B984E886BF32
:1000900006B607FC08C081B1887F8832C9F781B1F4
:1000A000887F883BA9F7089506B607FC08C081B190
:1000B000887F803AC9F781B1887F8038A9F784E8C2
:1000C00086BF86B7806486BF83B108950E943900D9
:1000D00082E00E944200D39ADB988D9A95980E9404
:1000E0005400813621F48BB380958BBBF8CF8236D8
:0E00F000B1F782B3809582BBF2CFF894FFCFB8
:00000001FF
